:100000000C9462000C948A000C948A000C948A0070
:100010000C948A000C948A000C948A000C948A0038
:100020000C948A000C948A000C948A000C948A0028
:100030000C948A000C948A000C948A000C948A0018
:100040000C948B060C948A000C9459060C9433067D
:100050000C948A000C948A000C948A000C948A00F8
:100060000C948A000C948A000000000024002700F1
:100070002A0000000000250028002B0000000008D6
:10008000000201000003040700000000000000005F
:1000900000000000230026002900040404040404D6
:1000A0000404020202020202030303030303010227
:1000B00004081020408001020408102001020408F6
:1000C0001020D50611241FBECFEFD8E0DEBFCDBF74
:1000D00011E0A0E0B1E0EEE3F6E102C005900D9280
:1000E000A034B107D9F722E0A0E4B1E001C01D922D
:1000F000A031B207E1F710E0C2E6D0E004C02197DA
:10010000FE010E94D608C136D107C9F70E944107F7
:100110000C941D0B0C9400008F929F92AF92BF9293
:10012000CF92DF92EF92FF92CF93DF93A091ED01F8
:10013000882311F03A2F01C030E08091EE0190E069
:10014000880F991F80579F4FC090F301D090F40102
:10015000E090F501F090F60140E050E0BA01FC01BA
:10016000C591D49128812A2323130FC04A015B0132
:100170002FEF821A920AA20AB20A4C155D056E058B
:100180007F0538F4B501A401EACF342F252FCB0128
:1001900004C030E020E080E090E0632F722FDF9118
:1001A000CF91FF90EF90DF90CF90BF90AF909F9056
:1001B0008F900895CF92DF92EF92FF920F931F934B
:1001C000CF93DF936C017A018B01C0E0D0E0CE15B4
:1001D000DF0589F0D8016D918D01D601ED91FC917B
:1001E0000190F081E02DC6010995892B11F47E0163
:1001F00002C02196ECCFC701DF91CF911F910F91E3
:10020000FF90EF90DF90CF900895FC01918D828D4B
:10021000981761F0828DDF01A80FB11D5D968C915A
:10022000928D9F5F9F73928F90E008958FEF9FEF65
:100230000895FC01918D828D981731F0828DE80F21
:10024000F11D858D90E008958FEF9FEF0895FC01DB
:10025000918D228D892F90E0805C9F4F821B9109A8
:100260008F739927089589E491E00E94270121E086
:10027000892B09F420E0822F0895FC01848DDF0191
:10028000A80FB11DA35ABF4F2C91848D90E0019609
:100290008F739927848FA689B7892C93A089B189F8
:1002A0008C9180648C93938D848D981306C0028802
:1002B000F389E02D80818F7D80830895EF92FF92F6
:1002C0000F931F93CF93DF93EC0181E0888F9B8D79
:1002D0008C8D981305C0E889F989808185FD24C03B
:1002E000F62E0B8D10E00F5F1F4F0F731127E02EBE
:1002F0008C8DE8120CC00FB607FCFACFE889F9899B
:10030000808185FFF5CFCE010E943D01F1CF8B8D1D
:10031000FE01E80FF11DE35AFF4FF0820B8FEA89CF
:10032000FB898081806207C0EE89FF896083E8894C
:10033000F98980818064808381E090E0DF91CF91B2
:100340001F910F91FF90EF900895CF93DF93EC01F1
:10035000888D8823C9F0EA89FB89808185FD05C0E5
:10036000A889B9898C9186FD0FC00FB607FCF5CF1F
:10037000808185FFF2CFA889B9898C9185FFEDCF67
:10038000CE010E943D01E7CFDF91CF91089580E03B
:1003900090E0892B29F00E94330181110C94000018
:1003A000089590E0FC01E458FF4F3491FC01E255C0
:1003B000FF4F2491FC01E656FF4FE491EE2309F430
:1003C0003BC0332339F1333091F038F43130A9F0A8
:1003D000323001F584B58F7D12C0373091F038305E
:1003E000A1F03430B9F4809180008F7D03C08091FA
:1003F00080008F77809380000DC084B58F7784BD97
:1004000009C08091B0008F7703C08091B0008F7DCC
:100410008093B000F0E0EE0FFF1FEE58FF4FA59164
:10042000B4918FB7F894EC91611103C020952E23FD
:1004300001C02E2B2C938FBF0895CF93DF9390E0B4
:10044000FC01E255FF4F2491FC01E656FF4F8491D9
:10045000882361F190E0880F991FFC01E859FF4F54
:10046000C591D491FC01EE58FF4FA591B491611153
:1004700009C09FB7F8948881209582238883EC91E6
:100480002E230BC0623061F49FB7F8943881822F1D
:10049000809583238883EC912E2B2C939FBF06C0DD
:1004A0008FB7F894E8812E2B28838FBFDF91CF91EF
:1004B00008953FB7F8948091410190914201A09135
:1004C0004301B091440126B5A89B05C02F3F19F008
:1004D0000196A11DB11D3FBFBA2FA92F982F8827C4
:1004E000820F911DA11DB11DBC01CD0142E0660F1F
:1004F000771F881F991F4A95D1F708958F929F9271
:10050000AF92BF92CF92DF92EF92FF926B017C018C
:100510000E9459024B015C01C114D104E104F104B1
:10052000F1F00E945902DC01CB0188199909AA094E
:10053000BB09883E9340A105B10570F321E0C21AC2
:10054000D108E108F10888EE880E83E0981EA11C0E
:10055000B11CC114D104E104F10419F7DDCFFF90FF
:10056000EF90DF90CF90BF90AF909F908F900895C5
:10057000CF92DF92EF92FF920F931F93CF93DF936F
:10058000CDB7DEB7C054D1400FB6F894DEBF0FBE72
:10059000CDBF2FB7F8948091450190914601A0916D
:1005A0004701B09148012FBF4091EF015091F001F8
:1005B0006091F1017091F2018C019D01041B150BFA
:1005C000260B370BB901A801403D57406105710565
:1005D00018F48091F701BCC08093EF019093F00173
:1005E000A093F101B093F2011092EA011092E90197
:1005F0001092E8011092E7011092E60161E080910B
:10060000EB010E94D1016AEF70E080E090E00E946F
:100610007E0261E08091EB010E941D0260E080910A
:10062000EB010E94D10164E170E080E090E00E9463
:100630007E02F89461E08091EB010E94D1018BE988
:1006400090E00197F1F762E08091EB010E941D02BA
:1006500083E290E00197F1F780E00E948C00672B25
:10066000682B692B21F41092F70178943EC081E049
:100670000E948C00672B682B692BA9F38E010F5FFA
:100680001F4F6E012FEBC21A2EEFD20A780180E0C5
:100690000E948C00F701608371838283938381E0E1
:1006A0000E948C00F7016483758386839783F8E04A
:1006B000EF0EF11CEC14FD0451F7789420E030E0CB
:1006C000F8014081518162817381C480D580E680C8
:1006D000F780411551056105710529F0C114D10458
:1006E000E104F10421F41092F70180E031C0F90136
:1006F00083E0F595E7958A95E1F7EA51FE4F808111
:10070000880F4C155D056E057F0508F481608083B8
:100710002F5F3F4F085F1F4F2832310589F6209128
:10072000EA0130E04091E6018091E70190E0840F1A
:10073000911D4091E801840F911D4091E901840FC2
:10074000911D99272817390771F681E08093F701E9
:10075000C05CDE4F0FB6F894DEBF0FBECDBFDF9199
:10076000CF911F910F91FF90EF90DF90CF90089560
:10077000CF93DF93EC0160E08E810E94D10161E0B4
:100780008E810E94D10160E08E810E94D1018BE8B0
:1007900091E00197F1F7DF91CF910895CF92DF9229
:1007A000EF92FF920F931F93CF93DF937C016C0125
:1007B00087E0C80ED11CC0E0D0E0062F10E0B801E1
:1007C0000C2E02C0759567950A94E2F76170F601E8
:1007D00081916F010E94D1012196C430D10579F732
:1007E000C701DF91CF911F910F91FF90EF90DF90A4
:1007F000CF900C94B803CF92DF92EF92FF920F93B9
:100800001F93CF93DF93EC01F62E642F8C810E940F
:10081000D1018D818F3F19F060E00E94D1018F8559
:100820000F2D10E084FF25C06E0187E0C80ED11C9B
:10083000E12CF12CB8010E2C02C0759567950A9435
:10084000E2F76170F60181916F010E94D101FFEF23
:10085000EF1AFF0A88E0E816F10461F7CE01DF9194
:10086000CF911F910F91FF90EF90DF90CF900C945C
:10087000B803B80184E0759567958A95E1F7CE01D4
:100880000E94CE036F2DCE01DF91CF911F910F916A
:10089000FF90EF90DF90CF900C94CE0341E00E9448
:1008A000FB0381E090E0089540E00C94FB03EF929D
:1008B000FF920F931F93CF93DF93EC01623018F0F8
:1008C0008F8588608F876B8B1C8A80E48D8B80E19D
:1008D0008E8B80E58F8B61E08C810E941D028D8163
:1008E0008F3F19F061E00E941D0261E08E810E943D
:1008F0001D027E0187E0E80EF11C00E010E08F850C
:1009000084FD03C084E090E002C088E090E0081716
:1009100019074CF461E0F70181917F010E941D02EB
:100920000F5F1F4FECCF8BE39DE00197F1F760E085
:100930008C810E94D10160E08E810E94D1018D8165
:100940008F3F19F060E00E94D1016F8564FD1DC0EA
:1009500063E0CE010E94CE030BE416E4C8010197C8
:10096000F1F763E0CE010E94CE03C8010197F1F7D1
:1009700063E0CE010E94CE0383E592E00197F1F798
:1009800062E0CE010E94CE0316C06062CE010E94DA
:1009900054048BE496E40197F1F76F856062CE0111
:1009A0000E94540483E592E00197F1F76F8560623D
:1009B000CE010E9454046F856062CE010E945404EF
:1009C00084E0888B6CE0CE010E94540461E0CE018B
:1009D0000E9454048BE39FE10197F1F782E0898B39
:1009E00066E0CE01DF91CF911F910F91FF90EF90C4
:1009F0000C945404009769F0FC0101900020E9F781
:100A00003197AF01481B590BBC0188EF91E00C9462
:100A1000DA0080E090E008958F929F92AF92BF92AB
:100A20000F931F93CF93DF93CDB7DEB7A1970FB688
:100A3000F894DEBF0FBECDBF19A2423008F44AE0E1
:100A40008E010F5D1F4F842E912CA12CB12CA5017E
:100A500094010E94B408E62FB901CA01015011099E
:100A6000EA3014F4E05D01C0E95CD801EC93232B7B
:100A7000242B252B61F7C8010E94FA04A1960FB61A
:100A8000F894DEBF0FBECDBFDF91CF911F910F91C4
:100A9000BF90AF909F908F9008954F925F926F920A
:100AA0007F928F929F92AF92BF92CF92DF92EF92FE
:100AB000FF926B017C01B42E9B01AC010E94130BD1
:100AC000882319F088E191E027C026013701E894D6
:100AD00077F82FEF3FEF4FE75FE7C301B2010E94C6
:100AE000130B81110DC02FEF3FEF4FE75FE7C301FD
:100AF000B2010E94490918161CF48CE191E00CC067
:100B00002FEF3FEF4FE75FE4C701B6010E94A10A54
:100B1000181684F480E291E0FF90EF90DF90CF9080
:100B2000BF90AF909F908F907F906F905F904F900D
:100B30000C94FA042FEF3FEF4FE75FECC701B601CB
:100B40000E94490987FDE6CF20E030E0A901C701F6
:100B5000B6010E94490987FF11C0E091F801F091A8
:100B6000F9010190F081E02D6DE288EF91E00995A7
:100B70004C01F7FAF094F7F8F09402C0812C912C14
:100B8000A12C60E070E080E09FE3AB1441F020E036
:100B900030E040E251E40E944E09A394F6CF9B015D
:100BA000AC01C701B6010E94DD082B013C010E9487
:100BB000C0096B017C010E94EF099B01AC01C301DC
:100BC000B2010E94DC082B013C014AE0C701B601DA
:100BD0000E940C057C01E80CF91CBB2069F0E09137
:100BE000F801F091F9010190F081E02D6EE288EFBB
:100BF00091E00995E80EF91EDB2CDD2021F120E0C3
:100C000030E040E251E4C301B2010E94A60A2B0188
:100C10003C010E94C0094B01A12CB12C4AE0C50146
:100C2000B4010E940C05E80EF91EC501B4010E9432
:100C3000EF099B01AC01C301B2010E94DC082B014A
:100C40003C01DA94DACFC701FF90EF90DF90CF90AC
:100C5000BF90AF909F908F907F906F905F904F90DC
:100C600008950E94180B1F920F920FB60F92112435
:100C70002F933F934F935F936F937F938F939F93A4
:100C8000AF93BF93EF93FF9389E491E00E943D01FE
:100C9000FF91EF91BF91AF919F918F917F916F9154
:100CA0005F914F913F912F910F900FBE0F901F902A
:100CB00018951F920F920FB60F9211242F938F93B6
:100CC0009F93EF93FF93E0915901F0915A01808136
:100CD000E0915F01F091600182FD12C090818091EE
:100CE00062018F5F8F7320916301821751F0E09151
:100CF0006201F0E0E75BFE4F958F8093620101C0D7
:100D00008081FF91EF919F918F912F910F900FBE56
:100D10000F901F9018951F920F920FB60F921124EB
:100D20002F933F938F939F93AF93BF9380914501F0
:100D300090914601A0914701B09148013091400146
:100D400023E0230F2D3720F40196A11DB11D05C00E
:100D500026E8230F0296A11DB11D20934001809328
:100D6000450190934601A0934701B09348018091BB
:100D7000410190914201A0914301B091440101963B
:100D8000A11DB11D8093410190934201A0934301A5
:100D9000B0934401BF91AF919F918F913F912F915B
:100DA0000F900FBE0F901F901895E9E4F1E01382A9
:100DB000128288EE93E0A0E0B0E084839583A6835E
:100DC000B78384E091E09183808385EC90E0958700
:100DD000848784EC90E09787868780EC90E0918B05
:100DE000808B81EC90E0938B828B82EC90E0958BF2
:100DF000848B86EC90E0978B868B118E128E138EEF
:100E0000148EE8EFF1E01382128284E191E0918385
:100E100080838CE084838FEF85838BE0868384E0FE
:100E2000878385E0808786E0818787E082871386D5
:100E3000148615861686178661E0CF010E94570436
:100E4000A6EEB1E088E015968C93159786E116968C
:100E50008C931697E6EBF0E0E4911796EC931797D6
:100E6000E2EAF0E0E4911896EC93189740E85EE32C
:100E700060E070E01D964D935D936D937C93509769
:100E80000895789484B5826084BD84B5816084BD02
:100E900085B5826085BD85B5816085BD80916E0018
:100EA000816080936E001092810080918100826049
:100EB0008093810080918100816080938100809186
:100EC00080008160809380008091B1008460809375
:100ED000B1008091B00081608093B00080917A0071
:100EE000846080937A0080917A00826080937A0097
:100EF00080917A00816080937A0080917A00806886
:100F000080937A001092C10062E08091EB010E9410
:100F10001D0280E398EFAFEFBFEF8093EF01909356
:100F2000F001A093F101B093F20162E088EF91E04B
:100F30000E945704E0915901F0915A0182E08083A8
:100F4000E0915501F09156011082E0915701F09126
:100F500058018FEC808310926101E0915D01F09166
:100F60005E0186E08083E0915B01F0915C0180810D
:100F700080618083E0915B01F0915C0180818860F9
:100F80008083E0915B01F0915C01808180688083C7
:100F9000E0915B01F0915C0180818F7D8083CBE3E8
:100FA000DFE10E94B802882309F441C08091EC017E
:100FB0008B3029F0E0F18551823058F038C06091D3
:100FC000E80170E080E090E00E94EF094B015C01D5
:100FD00034C01091E801612F6F7770E080E090E0FD
:100FE0000E94F10920E030E040E853E40E94A60AA4
:100FF0006B017C018091E901682F70E080E090E056
:101000000E94F1099B01AC01C701B6010E94DD08F5
:101010002DEC3CEC4CEC5DE30E94A60A4B015C011C
:1010200017FF0BC0B7FAB094B7F8B09406C0812C84
:10103000912C90ECA92E9FE7B92E0E94B80288232C
:10104000B1F18091EC018B3041F188F18551823012
:1010500070F56091E60170E080E090E00E94EF0999
:1010600020E030E040E853E40E94A60A6B017C01D6
:101070008091E701682F70E080E090E00E94F10924
:101080009B01AC01C701B6010E94DD082DEC3CECD0
:101090004CEC5DE30E94A60A07C06091E60170E097
:1010A00080E090E00E94EF096B017C0106C0C12C3A
:1010B000D12C80ECE82E8FE7F82E61E088EF91E0EC
:1010C0000E945404CE010197F1F7E1E080910B02F8
:1010D0008111E0E0E195F0E0E850FE4F648960683E
:1010E00088EF91E00E945404A5019401C501B40168
:1010F0000E94130B811133C0A7019601C701B601ED
:101100000E94130B81112BC08BE291E00E94FA0424
:1011100042E0C501B4010E944D05E0910B02E230AE
:10112000E0F4E150F0E0E850FE4F6489606888EF39
:1011300091E00E94540484E291E00E94FA0442E0AB
:10114000C701B6010E944D0568EE73E080E090E0B3
:101150000E947E020E94C70124CFE1E0E3CF82E338
:1011600091E00E94FA04F0CFA1E21A2EAA1BBB1B49
:10117000FD010DC0AA1FBB1FEE1FFF1FA217B30763
:10118000E407F50720F0A21BB30BE40BF50B661F79
:10119000771F881F991F1A9469F76095709580953D
:1011A00090959B01AC01BD01CF010895EE0FFF1F8B
:1011B0000590F491E02D09945058BB27AA270E946E
:1011C000F4080C94670A0E94590A38F00E94600AD9
:1011D00020F039F49F3F19F426F40C94560A0EF4CB
:1011E000E095E7FB0C94500AE92F0E94780A58F327
:1011F000BA17620773078407950720F079F4A6F5FC
:101200000C949A0A0EF4E0950B2EBA2FA02D0B0128
:10121000B90190010C01CA01A0011124FF27591B3B
:1012200099F0593F50F4503E68F11A16F040A22F41
:10123000232F342F4427585FF3CF469537952795B2
:10124000A795F0405395C9F77EF41F16BA0B620BB1
:10125000730B840BBAF09150A1F0FF0FBB1F661FF8
:10126000771F881FC2F70EC0BA0F621F731F841F3B
:1012700048F4879577956795B795F7959E3F08F061
:10128000B0CF9395880F08F09927EE0F9795879523
:1012900008950E942C0A08F481E008950E946209D2
:1012A0000C94670A0E94600A58F00E94590A40F0A4
:1012B00029F45F3F29F00C94500A51110C949B0AB9
:1012C0000C94560A0E94780A68F39923B1F35523C7
:1012D00091F3951B550BBB27AA2762177307840749
:1012E00038F09F5F5F4F220F331F441FAA1FA9F3DF
:1012F00035D00E2E3AF0E0E832D091505040E695CD
:10130000001CCAF72BD0FE2F29D0660F771F881F2D
:10131000BB1F261737074807AB07B0E809F0BB0B20
:10132000802DBF01FF2793585F4F3AF09E3F510534
:1013300078F00C94500A0C949B0A5F3FE4F3983EBB
:10134000D4F3869577956795B795F7959F5FC9F71D
:10135000880F911D9695879597F90895E1E0660F9E
:10136000771F881FBB1F621773078407BA0720F017
:10137000621B730B840BBA0BEE1F88F7E095089580
:101380000E94800A88F09F5798F0B92F9927B7518B
:10139000B0F0E1F0660F771F881F991F1AF0BA9519
:1013A000C9F714C0B13091F00E949A0AB1E00895D3
:1013B0000C949A0A672F782F8827B85F39F0B93FC5
:1013C000CCF3869577956795B395D9F73EF49095CC
:1013D0008095709561957F4F8F4F9F4F0895E8944A
:1013E00009C097FB3EF490958095709561957F4F6D
:1013F0008F4F9F4F9923A9F0F92F96E9BB2793951B
:10140000F695879577956795B795F111F8CFFAF42A
:10141000BB0F11F460FF1BC06F5F7F4F8F4F9F4F5B
:1014200016C0882311F096E911C0772321F09EE8B9
:10143000872F762F05C0662371F096E8862F70E01F
:1014400060E02AF09A95660F771F881FDAF7880FF9
:101450009695879597F90895990F0008550FAA0B4F
:10146000E0E8FEEF16161706E807F907C0F01216B7
:101470001306E407F50798F0621B730B840B950BBA
:1014800039F40A2661F0232B242B252B21F408950F
:101490000A2609F4A140A6958FEF811D811D0895AC
:1014A00097F99F6780E870E060E008959FEF80EC17
:1014B000089500240A9416161706180609060895BA
:1014C00000240A9412161306140605060895092E20
:1014D0000394000C11F4882352F0BB0F40F4BF2B8F
:1014E00011F460FF04C06F5F7F4F8F4F9F4F0895CF
:1014F00057FD9058440F551F59F05F3F71F04795C5
:10150000880F97FB991F61F09F3F79F087950895A9
:10151000121613061406551FF2CF4695F1DF08C0C8
:10152000161617061806991FF1CF869571056105E5
:1015300008940895E894BB2766277727CB0197F98D
:1015400008950E942C0A08F48FEF08950E94B90AAA
:101550000C94670A0E94590A38F00E94600A20F031
:10156000952311F00C94500A0C94560A11240C94F3
:101570009B0A0E94780A70F3959FC1F3950F50E083
:10158000551F629FF001729FBB27F00DB11D639F35
:10159000AA27F00DB11DAA1F649F6627B00DA11DDB
:1015A000661F829F2227B00DA11D621F739FB00D81
:1015B000A11D621F839FA00D611D221F749F3327F1
:1015C000A00D611D231F849F600D211D822F762F8A
:1015D0006A2F11249F5750409AF0F1F088234AF067
:1015E000EE0FFF1FBB1F661F771F881F91505040D3
:1015F000A9F79E3F510580F00C94500A0C949B0A69
:101600005F3FE4F3983ED4F3869577956795B79559
:10161000F795E7959F5FC1F7FE2B880F911D969573
:10162000879597F908950E942C0A880B990B0895C5
:0E16300081E090E0F8940C941D0BF894FFCF2D
:10163E00000000005E01DA00270105011901A50175
:10164E00000000004E04DA006E616E00696E6600E6
:10165E006F7666002068756D3A200074656D703A7D
:10166E0020004661696C20746F2052656164000031
:00000001FF
