:100000000C945D000C9485000C9485000C94850084
:100010000C9485000C9485000C9485000C9485004C
:100020000C9485000C9485000C9485000C9485003C
:100030000C9485000C9485000C9485000C9485002C
:100040000C9495020C9485000C9463020C943D0270
:100050000C9485000C9485000C9485000C9485000C
:100060000C9485000C9485000000000024002700FB
:100070002A0000000000250028002B0004040404CE
:100080000404040402020202020203030303030342
:10009000010204081020408001020408102001021F
:1000A00004081020000000080002010000030407FB
:1000B0000000000000000000100411241FBECFEF5C
:1000C000D8E0DEBFCDBF11E0A0E0B1E0EEE1FCE0A2
:1000D00002C005900D92A631B107D9F721E0A6E143
:1000E000B1E001C01D92AC3BB207E1F710E0CDE5F5
:1000F000D0E004C02197FE010E945F04CC35D107F7
:10010000C9F70E94DF020C940D060C94000090E0E9
:10011000FC01EC55FF4F2491FC01E057FF4F349157
:10012000FC01E458FF4FE491EE23B9F1222339F1A9
:10013000233091F038F42130A9F0223001F584B554
:100140008F7D12C0273091F02830A1F02430B9F40F
:10015000809180008F7D03C0809180008F77809395
:1001600080000DC084B58F7784BD09C08091B00038
:100170008F7703C08091B0008F7D8093B000F0E056
:10018000EE0FFF1FEE58FF4FA591B4918FB7F89473
:10019000EC9130953E233C938FBF0895CF92DF9230
:1001A000EF92FF920F931F93CF93DF936C017A012D
:1001B0008B01C0E0D0E0CE15DF0589F0D8016D914C
:1001C0008D01D601ED91FC910190F081E02DC601E9
:1001D0000995892B11F47E0102C02196ECCFC7014D
:1001E000DF91CF911F910F91FF90EF90DF90CF9013
:1001F0000895FC01918D828D981761F0828DDF0149
:10020000A80FB11D5D968C91928D9F5F9F73928F09
:1002100090E008958FEF9FEF0895FC01918D828DFE
:10022000981731F0828DE80FF11D858D90E00895CB
:100230008FEF9FEF0895FC01918D228D892F90E023
:10024000805C9F4F821B91098F73992708958FE1DE
:1002500091E00E941B0121E0892B09F420E0822F0C
:100260000895FC01848DDF01A80FB11DA35ABF4F73
:100270002C91848D90E001968F739927848FA689A5
:10028000B7892C93A089B1898C9180648C93938DCC
:10029000848D981306C00288F389E02D80818F7DBC
:1002A00080830895EF92FF920F931F93CF93DF9374
:1002B000EC0181E0888F9B8D8C8D981305C0E889B7
:1002C000F989808185FD24C0F62E0B8D10E00F5F2B
:1002D0001F4F0F731127E02E8C8DE8120CC00FB644
:1002E00007FCFACFE889F989808185FFF5CFCE0137
:1002F0000E943101F1CF8B8DFE01E80FF11DE35A11
:10030000FF4FF0820B8FEA89FB898081806207C0F2
:10031000EE89FF896083E889F98980818064808320
:1003200081E090E0DF91CF911F910F91FF90EF90CE
:100330000895CF93DF93EC01888D8823C9F0EA8973
:10034000FB89808185FD05C0A889B9898C9186FDCE
:100350000FC00FB607FCF5CF808185FFF2CFA889CB
:10036000B9898C9185FFEDCFCE010E943101E7CF95
:10037000DF91CF91089580E090E0892B29F00E94D1
:10038000270181110C94000008953FB7F8948091E3
:100390001B0190911C01A0911D01B0911E0126B579
:1003A000A89B05C02F3F19F00196A11DB11D3FBFAD
:1003B000BA2FA92F982F8827820F911DA11DB11D3B
:1003C000BC01CD0142E0660F771F881F991F4A9537
:1003D000D1F708958F929F92AF92BF920F931F9380
:1003E000CF93DF93CDB7DEB7A1970FB6F894DEBFFA
:1003F0000FBECDBF19A2423008F44AE08E010F5D56
:100400001F4F842E912CA12CB12CA50194010E9488
:100410003D04E62FB901CA0101501109EA3014F474
:10042000E05D01C0E95CD801EC93232B242B252B44
:1004300061F70115110571F0F80101900020E9F74D
:100440003197AF01401B510BB8018FE191E00E9441
:10045000CE0002C080E090E0A1960FB6F894DEBF17
:100460000FBECDBFDF91CF911F910F91BF90AF9085
:100470009F908F9008950E9408061F920F920FB6CA
:100480000F9211242F933F934F935F936F937F931A
:100490008F939F93AF93BF93EF93FF938FE191E07F
:1004A0000E943101FF91EF91BF91AF919F918F9188
:1004B0007F916F915F914F913F912F910F900FBE60
:1004C0000F901F9018951F920F920FB60F92112444
:1004D0002F938F939F93EF93FF93E0912F01F091D0
:1004E00030018081E0913501F091360182FD12C02A
:1004F0009081809138018F5F8F732091390182172D
:1005000051F0E0913801F0E0E15EFE4F958F80936D
:10051000380101C08081FF91EF919F918F912F91C0
:100520000F900FBE0F901F9018951F920F920FB64D
:100530000F9211242F933F938F939F93AF93BF9369
:100540008091170190911801A0911901B0911A01A1
:100550003091160123E0230F2D3720F40196A11DC1
:10056000B11D05C026E8230F0296A11DB11D2093E1
:1005700016018093170190931801A0931901B0936D
:100580001A0180911B0190911C01A0911D01B09155
:100590001E010196A11DB11D80931B0190931C01AA
:1005A000A0931D01B0931E01BF91AF919F918F91B8
:1005B0003F912F910F900FBE0F901F901895789438
:1005C00084B5826084BD84B5816084BD85B5826058
:1005D00085BD85B5816085BD80916E008160809309
:1005E0006E00109281008091810082608093810072
:1005F0008091810081608093810080918000816082
:10060000809380008091B10084608093B1008091DC
:10061000B00081608093B00080917A008460809304
:100620007A0080917A00826080937A0080917A00CB
:10063000816080937A0080917A00806880937A004C
:100640001092C100E7E9F0E02491E3E8F0E0849142
:10065000882399F090E0880F991FFC01E859FF4F1B
:10066000A591B491FC01EE58FF4F859194918FB7FD
:10067000F894EC91E22BEC938FBFE0912F01F09175
:10068000300182E08083E0912B01F0912C011082F7
:10069000E0912D01F0912E018FEC808310923701B3
:1006A000E0913301F091340186E08083E0913101E3
:1006B000F0913201808180618083E0913101F0917D
:1006C0003201808188608083E0913101F0913201B4
:1006D000808180688083E0913101F09132018081D6
:1006E0008F7D808390E4992ECAE1D0E00EE110E086
:1006F00090927C0080917A00806480937A0080914F
:100700007A0086FDFCCF609178008091790070E0DE
:10071000782B072E000C880B990B0E940F0520E008
:1007200030E040EA50E40E949B0520E030EC4FE7C7
:1007300054E40E94650420E030E048EC52E40E945A
:100740009B050E94D7045B016B01770FEE08FF0841
:10075000F7FE14C0E0911F01F09120010190F0819B
:10076000E02D6DE28FE191E0099566277727CB01B7
:100770006C197D098E099F094AE003C04AE0C70150
:10078000B6010E94EA0142E050E062E171E08FE1CF
:1007900091E00E94CE008091000190910101A81685
:1007A000B906A1F42AE1A216B10429F410930101BB
:1007B0000093000108C08EE1A816B10439F4D0936B
:1007C0000101C093000187E00E9487000E94C501DB
:1007D0002B013C0188EEC82E83E0D82EE12CF12CB1
:1007E0000E94C501DC01CB0184199509A609B7094E
:1007F000883E9340A105B10558F021E0C21AD10806
:10080000E108F10888EE480E83E0581E611C711C57
:10081000C114D104E104F10419F70E94BB0168CFAF
:10082000EFE1F1E01382128288EE93E0A0E0B0E005
:1008300084839583A683B78386E091E09183808348
:1008400085EC90E09587848784EC90E09787868795
:1008500080EC90E0918B808B81EC90E0938B828B8D
:1008600082EC90E0958B848B86EC90E0978B868B66
:10087000118E128E138E148E0895A1E21A2EAA1BC9
:10088000BB1BFD010DC0AA1FBB1FEE1FFF1FA21740
:10089000B307E407F50720F0A21BB30BE40BF50B3D
:1008A000661F771F881F991F1A9469F760957095C6
:1008B000809590959B01AC01BD01CF010895EE0F8D
:1008C000FF1F0590F491E02D09940E9479040C9487
:1008D00061050E945A0558F00E94530540F029F422
:1008E0005F3F29F00C944A0551110C9495050C9426
:1008F00050050E94720568F39923B1F3552391F3D3
:10090000951B550BBB27AA2762177307840738F07E
:100910009F5F5F4F220F331F441FAA1FA9F335D0DB
:100920000E2E3AF0E0E832D091505040E695001C8F
:10093000CAF72BD0FE2F29D0660F771F881FBB1F49
:10094000261737074807AB07B0E809F0BB0B802D27
:10095000BF01FF2793585F4F3AF09E3F510578F053
:100960000C944A050C9495055F3FE4F3983ED4F34C
:10097000869577956795B795F7959F5FC9F7880F27
:10098000911D9695879597F90895E1E0660F771F79
:10099000881FBB1F621773078407BA0720F0621B0A
:1009A000730B840BBA0BEE1F88F7E09508950E9435
:1009B000DE046894B1110C94950508950E947A059F
:1009C00088F09F5798F0B92F9927B751B0F0E1F010
:1009D000660F771F881F991F1AF0BA95C9F714C0C0
:1009E000B13091F00E949405B1E008950C94940503
:1009F000672F782F8827B85F39F0B93FCCF38695F9
:100A000077956795B395D9F73EF490958095709555
:100A100061957F4F8F4F9F4F0895E89409C097FBD2
:100A20003EF490958095709561957F4F8F4F9F4FC5
:100A30009923A9F0F92F96E9BB279395F695879509
:100A400077956795B795F111F8CFFAF4BB0F11F4CC
:100A500060FF1BC06F5F7F4F8F4F9F4F16C0882373
:100A600011F096E911C0772321F09EE8872F762FA9
:100A700005C0662371F096E8862F70E060E02AF0EA
:100A80009A95660F771F881FDAF7880F96958795D6
:100A900097F9089597F99F6780E870E060E00895FE
:100AA0009FEF80EC089500240A9416161706180686
:100AB0000906089500240A94121613061406050662
:100AC0000895092E0394000C11F4882352F0BB0FF3
:100AD00040F4BF2B11F460FF04C06F5F7F4F8F4F56
:100AE0009F4F089557FD9058440F551F59F05F3F91
:100AF00071F04795880F97FB991F61F09F3F79F040
:100B000087950895121613061406551FF2CF4695C1
:100B1000F1DF08C0161617061806991FF1CF869543
:100B20007105610508940895E894BB276627772727
:100B3000CB0197F908950E94AE050C9461050E94BF
:100B4000530538F00E945A0520F0952311F00C94BB
:100B50004A050C94500511240C9495050E947205C9
:100B600070F3959FC1F3950F50E0551F629FF00100
:100B7000729FBB27F00DB11D639FAA27F00DB11D19
:100B8000AA1F649F6627B00DA11D661F829F2227A2
:100B9000B00DA11D621F739FB00DA11D621F839F29
:100BA000A00D611D221F749F3327A00D611D231FFF
:100BB000849F600D211D822F762F6A2F11249F574D
:100BC00050409AF0F1F088234AF0EE0FFF1FBB1F50
:100BD000661F771F881F91505040A9F79E3F51050F
:100BE00080F00C944A050C9495055F3FE4F3983E21
:100BF000D4F3869577956795B795F795E7959F5FB9
:100C0000C1F7FE2B880F911D9695879597F908954A
:0E0C100081E090E0F8940C940D06F894FFCF6C
:100C1E001A00000000005201CE001B01F9000D0168
:060C2E0099010D0A00000F
:00000001FF
